{
  "_format": "hh-sol-artifact-1",
  "contractName": "LoC",
  "sourceName": "contracts/LoC.sol",
  "abi": [
    {
      "anonymous": false,
      "inputs": [
        {
          "indexed": false,
          "internalType": "uint256",
          "name": "lcID",
          "type": "uint256"
        },
        {
          "indexed": false,
          "internalType": "string",
          "name": "invoice",
          "type": "string"
        },
        {
          "indexed": false,
          "internalType": "string",
          "name": "BoE",
          "type": "string"
        },
        {
          "indexed": false,
          "internalType": "string",
          "name": "BoL",
          "type": "string"
        },
        {
          "indexed": false,
          "internalType": "string",
          "name": "other",
          "type": "string"
        }
      ],
      "name": "DocUploaded",
      "type": "event"
    },
    {
      "anonymous": false,
      "inputs": [
        {
          "indexed": false,
          "internalType": "uint256",
          "name": "lcID",
          "type": "uint256"
        }
      ],
      "name": "LcApproved",
      "type": "event"
    },
    {
      "anonymous": false,
      "inputs": [
        {
          "indexed": false,
          "internalType": "uint256",
          "name": "lcID",
          "type": "uint256"
        },
        {
          "indexed": false,
          "internalType": "uint256",
          "name": "salesContractID",
          "type": "uint256"
        },
        {
          "indexed": false,
          "internalType": "string",
          "name": "invoiceHash",
          "type": "string"
        },
        {
          "indexed": false,
          "internalType": "string",
          "name": "billOfExchangeHash",
          "type": "string"
        },
        {
          "indexed": false,
          "internalType": "string",
          "name": "billOfLadingHash",
          "type": "string"
        },
        {
          "indexed": false,
          "internalType": "string",
          "name": "otherDocHash",
          "type": "string"
        },
        {
          "indexed": false,
          "internalType": "string",
          "name": "lcStatus",
          "type": "string"
        },
        {
          "indexed": false,
          "internalType": "string",
          "name": "startDate",
          "type": "string"
        }
      ],
      "name": "LcCreated",
      "type": "event"
    },
    {
      "anonymous": false,
      "inputs": [
        {
          "indexed": false,
          "internalType": "uint256",
          "name": "lcID",
          "type": "uint256"
        }
      ],
      "name": "LcRejected",
      "type": "event"
    },
    {
      "anonymous": false,
      "inputs": [
        {
          "indexed": false,
          "internalType": "uint256",
          "name": "lcID",
          "type": "uint256"
        },
        {
          "indexed": false,
          "internalType": "string",
          "name": "status",
          "type": "string"
        }
      ],
      "name": "LcStatusChanged",
      "type": "event"
    },
    {
      "anonymous": false,
      "inputs": [
        {
          "indexed": true,
          "internalType": "address",
          "name": "previousOwner",
          "type": "address"
        },
        {
          "indexed": true,
          "internalType": "address",
          "name": "newOwner",
          "type": "address"
        }
      ],
      "name": "OwnershipTransferred",
      "type": "event"
    },
    {
      "anonymous": false,
      "inputs": [
        {
          "indexed": false,
          "internalType": "uint256",
          "name": "salesContractID",
          "type": "uint256"
        },
        {
          "indexed": false,
          "internalType": "string",
          "name": "importer",
          "type": "string"
        },
        {
          "indexed": false,
          "internalType": "string",
          "name": "exporter",
          "type": "string"
        },
        {
          "indexed": false,
          "internalType": "string",
          "name": "issuingBank",
          "type": "string"
        },
        {
          "indexed": false,
          "internalType": "string",
          "name": "advisingBank",
          "type": "string"
        },
        {
          "indexed": false,
          "internalType": "string",
          "name": "commodity",
          "type": "string"
        },
        {
          "indexed": false,
          "internalType": "string",
          "name": "price",
          "type": "string"
        },
        {
          "indexed": false,
          "internalType": "string",
          "name": "paymentMethod",
          "type": "string"
        },
        {
          "indexed": false,
          "internalType": "string",
          "name": "additionalInfo",
          "type": "string"
        },
        {
          "indexed": false,
          "internalType": "uint256",
          "name": "deadline",
          "type": "uint256"
        }
      ],
      "name": "SalesContractCreated",
      "type": "event"
    },
    {
      "inputs": [
        {
          "internalType": "uint256",
          "name": "lcID",
          "type": "uint256"
        }
      ],
      "name": "approveLC",
      "outputs": [
        {
          "internalType": "bool",
          "name": "sucess",
          "type": "bool"
        }
      ],
      "stateMutability": "nonpayable",
      "type": "function"
    },
    {
      "inputs": [
        {
          "internalType": "uint256",
          "name": "lcID",
          "type": "uint256"
        },
        {
          "internalType": "string",
          "name": "status",
          "type": "string"
        }
      ],
      "name": "changeLcStatus",
      "outputs": [
        {
          "internalType": "bool",
          "name": "success",
          "type": "bool"
        }
      ],
      "stateMutability": "nonpayable",
      "type": "function"
    },
    {
      "inputs": [
        {
          "internalType": "uint256",
          "name": "salesContractID",
          "type": "uint256"
        },
        {
          "internalType": "string",
          "name": "startDate",
          "type": "string"
        }
      ],
      "name": "createLC",
      "outputs": [
        {
          "internalType": "uint256",
          "name": "lcID",
          "type": "uint256"
        }
      ],
      "stateMutability": "nonpayable",
      "type": "function"
    },
    {
      "inputs": [
        {
          "internalType": "string",
          "name": "importer",
          "type": "string"
        },
        {
          "internalType": "string",
          "name": "exporter",
          "type": "string"
        },
        {
          "internalType": "string",
          "name": "issuingBank",
          "type": "string"
        },
        {
          "internalType": "string",
          "name": "advisingBank",
          "type": "string"
        },
        {
          "internalType": "string",
          "name": "commodity",
          "type": "string"
        },
        {
          "internalType": "string",
          "name": "price",
          "type": "string"
        },
        {
          "internalType": "string",
          "name": "paymentMethod",
          "type": "string"
        },
        {
          "internalType": "string",
          "name": "additionalInfo",
          "type": "string"
        },
        {
          "internalType": "uint256",
          "name": "deadline",
          "type": "uint256"
        }
      ],
      "name": "createSalesContract",
      "outputs": [
        {
          "internalType": "uint256",
          "name": "salesContractID",
          "type": "uint256"
        }
      ],
      "stateMutability": "nonpayable",
      "type": "function"
    },
    {
      "inputs": [],
      "name": "owner",
      "outputs": [
        {
          "internalType": "address",
          "name": "",
          "type": "address"
        }
      ],
      "stateMutability": "view",
      "type": "function"
    },
    {
      "inputs": [
        {
          "internalType": "uint256",
          "name": "lcID",
          "type": "uint256"
        }
      ],
      "name": "rejectLC",
      "outputs": [
        {
          "internalType": "bool",
          "name": "sucess",
          "type": "bool"
        }
      ],
      "stateMutability": "nonpayable",
      "type": "function"
    },
    {
      "inputs": [],
      "name": "renounceOwnership",
      "outputs": [],
      "stateMutability": "nonpayable",
      "type": "function"
    },
    {
      "inputs": [
        {
          "internalType": "address",
          "name": "newOwner",
          "type": "address"
        }
      ],
      "name": "transferOwnership",
      "outputs": [],
      "stateMutability": "nonpayable",
      "type": "function"
    },
    {
      "inputs": [
        {
          "internalType": "uint256",
          "name": "lcID",
          "type": "uint256"
        },
        {
          "internalType": "string",
          "name": "invoice",
          "type": "string"
        },
        {
          "internalType": "string",
          "name": "exchange",
          "type": "string"
        },
        {
          "internalType": "string",
          "name": "lading",
          "type": "string"
        },
        {
          "internalType": "string",
          "name": "other",
          "type": "string"
        }
      ],
      "name": "uploadDocument",
      "outputs": [
        {
          "internalType": "bool",
          "name": "success",
          "type": "bool"
        }
      ],
      "stateMutability": "nonpayable",
      "type": "function"
    }
  ],
  "bytecode": "0x60806040526000600155600060025534801561001a57600080fd5b5061003761002c61003c60201b60201c565b61004460201b60201c565b610108565b600033905090565b60008060009054906101000a900473ffffffffffffffffffffffffffffffffffffffff169050816000806101000a81548173ffffffffffffffffffffffffffffffffffffffff021916908373ffffffffffffffffffffffffffffffffffffffff1602179055508173ffffffffffffffffffffffffffffffffffffffff168173ffffffffffffffffffffffffffffffffffffffff167f8be0079c531659141344cd1fd0a4f28419497f9722a3daafe3b4186f6b6457e060405160405180910390a35050565b61177e806101176000396000f3fe608060405234801561001057600080fd5b50600436106100935760003560e01c80638ebd2075116100665780638ebd207514610120578063c8a15cbe14610150578063dc10f57614610180578063ead12575146101b0578063f2fde38b146101e057610093565b806328da13ea14610098578063715018a6146100c857806372c269bb146100d25780638da5cb5b14610102575b600080fd5b6100b260048036038101906100ad91906109f6565b6101fc565b6040516100bf9190610a3e565b60405180910390f35b6100d061029c565b005b6100ec60048036038101906100e79190610b9f565b6102b0565b6040516100f99190610a3e565b60405180910390f35b61010a61035d565b6040516101179190610ccb565b60405180910390f35b61013a60048036038101906101359190610ce6565b610386565b6040516101479190610a3e565b60405180910390f35b61016a600480360381019061016591906109f6565b6103f7565b6040516101779190610a3e565b60405180910390f35b61019a60048036038101906101959190610ce6565b610497565b6040516101a79190610d51565b60405180910390f35b6101ca60048036038101906101c59190610d6c565b61064c565b6040516101d79190610d51565b60405180910390f35b6101fa60048036038101906101f59190610f42565b6107df565b005b6000806004600084815260200190815260200160002090506040518060400160405280601681526020017f6164766973696e675f62616e6b5f617070726f7665640000000000000000000081525081600601908161025a9190611186565b507f36207fe4e2aaa1b64e639caa58dd1a7220881b04c773189dfdf5a96c0664fb6f8360405161028a9190610d51565b60405180910390a16001915050919050565b6102a4610862565b6102ae60006108e0565b565b600080600460008881526020019081526020016000209050858160020190816102d99190611186565b50848160030190816102eb9190611186565b50838160040190816102fd9190611186565b508281600501908161030f9190611186565b507f56757fe7c8c20d8435e576b58b25db01ece833948570ee685cec33c423032a1287878787876040516103479594939291906112cc565b60405180910390a1600191505095945050505050565b60008060009054906101000a900473ffffffffffffffffffffffffffffffffffffffff16905090565b600080600460008581526020019081526020016000209050828160060190816103af9190611186565b507fc801acad03a7977dbacae243a9259d91c985312f8ba5887ae5bf51ec61935bb784826006016040516103e49291906113bf565b60405180910390a1600191505092915050565b6000806004600084815260200190815260200160002090506040518060400160405280601681526020017f6164766973696e675f62616e6b5f72656a6563746564000000000000000000008152508160060190816104559190611186565b507f28975f1df4d22bac827193e174ac7c833b24b5980dc70b76d584988604c57ccc836040516104859190610d51565b60405180910390a16001915050919050565b6000600260008154809291906104ac9061141e565b9190505590506040518061010001604052808281526020018481526020016040518060200160405280600081525081526020016040518060200160405280600081525081526020016040518060200160405280600081525081526020016040518060200160405280600081525081526020016040518060400160405280600781526020017f637265617465640000000000000000000000000000000000000000000000000081525081526020018381525060046000838152602001908152602001600020600082015181600001556020820151816001015560408201518160020190816105999190611186565b5060608201518160030190816105af9190611186565b5060808201518160040190816105c59190611186565b5060a08201518160050190816105db9190611186565b5060c08201518160060190816105f19190611186565b5060e08201518160070190816106079190611186565b509050507f0bbc3d3729713bfb46daf022e16aab9641d118ec06f09f100eb0b11415b0c46081848460405161063e939291906114d8565b60405180910390a192915050565b6000600160008154809291906106619061141e565b9190505590506040518061014001604052808281526020018b81526020018a815260200189815260200188815260200187815260200186815260200185815260200184815260200183815250600360008381526020019081526020016000206000820151816000015560208201518160010190816106df9190611186565b5060408201518160020190816106f59190611186565b50606082015181600301908161070b9190611186565b5060808201518160040190816107219190611186565b5060a08201518160050190816107379190611186565b5060c082015181600601908161074d9190611186565b5060e08201518160070190816107639190611186565b5061010082015181600801908161077a9190611186565b5061012082015181600901559050507fa8dac939689e7b23d76c62aed9c65171758b7b17a992ddbfaba270000c405e7f818b8b8b8b8b8b8b8b8b6040516107ca9a99989796959493929190611576565b60405180910390a19998505050505050505050565b6107e7610862565b600073ffffffffffffffffffffffffffffffffffffffff168173ffffffffffffffffffffffffffffffffffffffff1603610856576040517f08c379a000000000000000000000000000000000000000000000000000000000815260040161084d906116bc565b60405180910390fd5b61085f816108e0565b50565b61086a6109a4565b73ffffffffffffffffffffffffffffffffffffffff1661088861035d565b73ffffffffffffffffffffffffffffffffffffffff16146108de576040517f08c379a00000000000000000000000000000000000000000000000000000000081526004016108d590611728565b60405180910390fd5b565b60008060009054906101000a900473ffffffffffffffffffffffffffffffffffffffff169050816000806101000a81548173ffffffffffffffffffffffffffffffffffffffff021916908373ffffffffffffffffffffffffffffffffffffffff1602179055508173ffffffffffffffffffffffffffffffffffffffff168173ffffffffffffffffffffffffffffffffffffffff167f8be0079c531659141344cd1fd0a4f28419497f9722a3daafe3b4186f6b6457e060405160405180910390a35050565b600033905090565b6000604051905090565b600080fd5b600080fd5b6000819050919050565b6109d3816109c0565b81146109de57600080fd5b50565b6000813590506109f0816109ca565b92915050565b600060208284031215610a0c57610a0b6109b6565b5b6000610a1a848285016109e1565b91505092915050565b60008115159050919050565b610a3881610a23565b82525050565b6000602082019050610a536000830184610a2f565b92915050565b600080fd5b600080fd5b6000601f19601f8301169050919050565b7f4e487b7100000000000000000000000000000000000000000000000000000000600052604160045260246000fd5b610aac82610a63565b810181811067ffffffffffffffff82111715610acb57610aca610a74565b5b80604052505050565b6000610ade6109ac565b9050610aea8282610aa3565b919050565b600067ffffffffffffffff821115610b0a57610b09610a74565b5b610b1382610a63565b9050602081019050919050565b82818337600083830152505050565b6000610b42610b3d84610aef565b610ad4565b905082815260208101848484011115610b5e57610b5d610a5e565b5b610b69848285610b20565b509392505050565b600082601f830112610b8657610b85610a59565b5b8135610b96848260208601610b2f565b91505092915050565b600080600080600060a08688031215610bbb57610bba6109b6565b5b6000610bc9888289016109e1565b955050602086013567ffffffffffffffff811115610bea57610be96109bb565b5b610bf688828901610b71565b945050604086013567ffffffffffffffff811115610c1757610c166109bb565b5b610c2388828901610b71565b935050606086013567ffffffffffffffff811115610c4457610c436109bb565b5b610c5088828901610b71565b925050608086013567ffffffffffffffff811115610c7157610c706109bb565b5b610c7d88828901610b71565b9150509295509295909350565b600073ffffffffffffffffffffffffffffffffffffffff82169050919050565b6000610cb582610c8a565b9050919050565b610cc581610caa565b82525050565b6000602082019050610ce06000830184610cbc565b92915050565b60008060408385031215610cfd57610cfc6109b6565b5b6000610d0b858286016109e1565b925050602083013567ffffffffffffffff811115610d2c57610d2b6109bb565b5b610d3885828601610b71565b9150509250929050565b610d4b816109c0565b82525050565b6000602082019050610d666000830184610d42565b92915050565b60008060008060008060008060006101208a8c031215610d8f57610d8e6109b6565b5b60008a013567ffffffffffffffff811115610dad57610dac6109bb565b5b610db98c828d01610b71565b99505060208a013567ffffffffffffffff811115610dda57610dd96109bb565b5b610de68c828d01610b71565b98505060408a013567ffffffffffffffff811115610e0757610e066109bb565b5b610e138c828d01610b71565b97505060608a013567ffffffffffffffff811115610e3457610e336109bb565b5b610e408c828d01610b71565b96505060808a013567ffffffffffffffff811115610e6157610e606109bb565b5b610e6d8c828d01610b71565b95505060a08a013567ffffffffffffffff811115610e8e57610e8d6109bb565b5b610e9a8c828d01610b71565b94505060c08a013567ffffffffffffffff811115610ebb57610eba6109bb565b5b610ec78c828d01610b71565b93505060e08a013567ffffffffffffffff811115610ee857610ee76109bb565b5b610ef48c828d01610b71565b925050610100610f068c828d016109e1565b9150509295985092959850929598565b610f1f81610caa565b8114610f2a57600080fd5b50565b600081359050610f3c81610f16565b92915050565b600060208284031215610f5857610f576109b6565b5b6000610f6684828501610f2d565b91505092915050565b600081519050919050565b7f4e487b7100000000000000000000000000000000000000000000000000000000600052602260045260246000fd5b60006002820490506001821680610fc157607f821691505b602082108103610fd457610fd3610f7a565b5b50919050565b60008190508160005260206000209050919050565b60006020601f8301049050919050565b600082821b905092915050565b60006008830261103c7fffffffffffffffffffffffffffffffffffffffffffffffffffffffffffffffff82610fff565b6110468683610fff565b95508019841693508086168417925050509392505050565b6000819050919050565b600061108361107e611079846109c0565b61105e565b6109c0565b9050919050565b6000819050919050565b61109d83611068565b6110b16110a98261108a565b84845461100c565b825550505050565b600090565b6110c66110b9565b6110d1818484611094565b505050565b5b818110156110f5576110ea6000826110be565b6001810190506110d7565b5050565b601f82111561113a5761110b81610fda565b61111484610fef565b81016020851015611123578190505b61113761112f85610fef565b8301826110d6565b50505b505050565b600082821c905092915050565b600061115d6000198460080261113f565b1980831691505092915050565b6000611176838361114c565b9150826002028217905092915050565b61118f82610f6f565b67ffffffffffffffff8111156111a8576111a7610a74565b5b6111b28254610fa9565b6111bd8282856110f9565b600060209050601f8311600181146111f057600084156111de578287015190505b6111e8858261116a565b865550611250565b601f1984166111fe86610fda565b60005b8281101561122657848901518255600182019150602085019450602081019050611201565b86831015611243578489015161123f601f89168261114c565b8355505b6001600288020188555050505b505050505050565b600082825260208201905092915050565b60005b8381101561128757808201518184015260208101905061126c565b60008484015250505050565b600061129e82610f6f565b6112a88185611258565b93506112b8818560208601611269565b6112c181610a63565b840191505092915050565b600060a0820190506112e16000830188610d42565b81810360208301526112f38187611293565b905081810360408301526113078186611293565b9050818103606083015261131b8185611293565b9050818103608083015261132f8184611293565b90509695505050505050565b6000815461134881610fa9565b6113528186611258565b9450600182166000811461136d5760018114611383576113b6565b60ff1983168652811515602002860193506113b6565b61138c85610fda565b60005b838110156113ae5781548189015260018201915060208101905061138f565b808801955050505b50505092915050565b60006040820190506113d46000830185610d42565b81810360208301526113e6818461133b565b90509392505050565b7f4e487b7100000000000000000000000000000000000000000000000000000000600052601160045260246000fd5b6000611429826109c0565b91507fffffffffffffffffffffffffffffffffffffffffffffffffffffffffffffffff820361145b5761145a6113ef565b5b600182019050919050565b50565b6000611476600083611258565b915061148182611466565b600082019050919050565b7f6372656174656400000000000000000000000000000000000000000000000000600082015250565b60006114c2600783611258565b91506114cd8261148c565b602082019050919050565b6000610100820190506114ee6000830186610d42565b6114fb6020830185610d42565b818103604083015261150c81611469565b9050818103606083015261151f81611469565b9050818103608083015261153281611469565b905081810360a083015261154581611469565b905081810360c0830152611558816114b5565b905081810360e083015261156c8184611293565b9050949350505050565b60006101408201905061158c600083018d610d42565b818103602083015261159e818c611293565b905081810360408301526115b2818b611293565b905081810360608301526115c6818a611293565b905081810360808301526115da8189611293565b905081810360a08301526115ee8188611293565b905081810360c08301526116028187611293565b905081810360e08301526116168186611293565b905081810361010083015261162b8185611293565b905061163b610120830184610d42565b9b9a5050505050505050505050565b7f4f776e61626c653a206e6577206f776e657220697320746865207a65726f206160008201527f6464726573730000000000000000000000000000000000000000000000000000602082015250565b60006116a6602683611258565b91506116b18261164a565b604082019050919050565b600060208201905081810360008301526116d581611699565b9050919050565b7f4f776e61626c653a2063616c6c6572206973206e6f7420746865206f776e6572600082015250565b6000611712602083611258565b915061171d826116dc565b602082019050919050565b6000602082019050818103600083015261174181611705565b905091905056fea2646970667358221220e28fc8cc91442c973eb6bcd7b5f02b4d01b7354baf01a013f2c9074b7644a4e164736f6c63430008120033",
  "linkReferences": {},
  "deployedLinkReferences": {}
}