{
  "_format": "hh-sol-artifact-1",
  "contractName": "LoC",
  "sourceName": "contracts/LoC.sol",
  "abi": [
    {
      "anonymous": false,
      "inputs": [
        {
          "indexed": false,
          "internalType": "uint256",
          "name": "lcID",
          "type": "uint256"
        }
      ],
      "name": "DocUploaded",
      "type": "event"
    },
    {
      "anonymous": false,
      "inputs": [
        {
          "indexed": false,
          "internalType": "uint256",
          "name": "lcID",
          "type": "uint256"
        }
      ],
      "name": "LcApproved",
      "type": "event"
    },
    {
      "anonymous": false,
      "inputs": [
        {
          "indexed": false,
          "internalType": "uint256",
          "name": "lcID",
          "type": "uint256"
        },
        {
          "indexed": false,
          "internalType": "uint256",
          "name": "salesContractID",
          "type": "uint256"
        }
      ],
      "name": "LcCreated",
      "type": "event"
    },
    {
      "anonymous": false,
      "inputs": [
        {
          "indexed": false,
          "internalType": "uint256",
          "name": "lcID",
          "type": "uint256"
        }
      ],
      "name": "LcRejected",
      "type": "event"
    },
    {
      "anonymous": false,
      "inputs": [
        {
          "indexed": false,
          "internalType": "uint256",
          "name": "lcID",
          "type": "uint256"
        },
        {
          "indexed": false,
          "internalType": "string",
          "name": "status",
          "type": "string"
        }
      ],
      "name": "LcStatusChanged",
      "type": "event"
    },
    {
      "anonymous": false,
      "inputs": [
        {
          "indexed": true,
          "internalType": "address",
          "name": "previousOwner",
          "type": "address"
        },
        {
          "indexed": true,
          "internalType": "address",
          "name": "newOwner",
          "type": "address"
        }
      ],
      "name": "OwnershipTransferred",
      "type": "event"
    },
    {
      "anonymous": false,
      "inputs": [
        {
          "indexed": false,
          "internalType": "uint256",
          "name": "salesContractID",
          "type": "uint256"
        }
      ],
      "name": "SalesContractCreated",
      "type": "event"
    },
    {
      "inputs": [
        {
          "internalType": "uint256",
          "name": "lcID",
          "type": "uint256"
        }
      ],
      "name": "approveLC",
      "outputs": [
        {
          "internalType": "bool",
          "name": "sucess",
          "type": "bool"
        }
      ],
      "stateMutability": "nonpayable",
      "type": "function"
    },
    {
      "inputs": [
        {
          "internalType": "uint256",
          "name": "lcID",
          "type": "uint256"
        },
        {
          "internalType": "string",
          "name": "status",
          "type": "string"
        }
      ],
      "name": "changeLcStatus",
      "outputs": [
        {
          "internalType": "bool",
          "name": "success",
          "type": "bool"
        }
      ],
      "stateMutability": "nonpayable",
      "type": "function"
    },
    {
      "inputs": [
        {
          "internalType": "uint256",
          "name": "salesContractID",
          "type": "uint256"
        },
        {
          "internalType": "string",
          "name": "startDate",
          "type": "string"
        }
      ],
      "name": "createLC",
      "outputs": [
        {
          "internalType": "uint256",
          "name": "lcID",
          "type": "uint256"
        }
      ],
      "stateMutability": "nonpayable",
      "type": "function"
    },
    {
      "inputs": [
        {
          "internalType": "string",
          "name": "importer",
          "type": "string"
        },
        {
          "internalType": "string",
          "name": "exporter",
          "type": "string"
        },
        {
          "internalType": "string",
          "name": "issuingBank",
          "type": "string"
        },
        {
          "internalType": "string",
          "name": "advisingBank",
          "type": "string"
        },
        {
          "internalType": "string",
          "name": "commodity",
          "type": "string"
        },
        {
          "internalType": "string",
          "name": "price",
          "type": "string"
        },
        {
          "internalType": "string",
          "name": "paymentMethod",
          "type": "string"
        },
        {
          "internalType": "string",
          "name": "additionalInfo",
          "type": "string"
        },
        {
          "internalType": "uint256",
          "name": "deadline",
          "type": "uint256"
        }
      ],
      "name": "createSalesContract",
      "outputs": [
        {
          "internalType": "uint256",
          "name": "salesContractID",
          "type": "uint256"
        }
      ],
      "stateMutability": "nonpayable",
      "type": "function"
    },
    {
      "inputs": [],
      "name": "owner",
      "outputs": [
        {
          "internalType": "address",
          "name": "",
          "type": "address"
        }
      ],
      "stateMutability": "view",
      "type": "function"
    },
    {
      "inputs": [
        {
          "internalType": "uint256",
          "name": "lcID",
          "type": "uint256"
        }
      ],
      "name": "rejectLC",
      "outputs": [
        {
          "internalType": "bool",
          "name": "sucess",
          "type": "bool"
        }
      ],
      "stateMutability": "nonpayable",
      "type": "function"
    },
    {
      "inputs": [],
      "name": "renounceOwnership",
      "outputs": [],
      "stateMutability": "nonpayable",
      "type": "function"
    },
    {
      "inputs": [
        {
          "internalType": "address",
          "name": "newOwner",
          "type": "address"
        }
      ],
      "name": "transferOwnership",
      "outputs": [],
      "stateMutability": "nonpayable",
      "type": "function"
    },
    {
      "inputs": [
        {
          "internalType": "uint256",
          "name": "lcID",
          "type": "uint256"
        },
        {
          "internalType": "string",
          "name": "invoice",
          "type": "string"
        },
        {
          "internalType": "string",
          "name": "exchange",
          "type": "string"
        },
        {
          "internalType": "string",
          "name": "lading",
          "type": "string"
        },
        {
          "internalType": "string",
          "name": "other",
          "type": "string"
        }
      ],
      "name": "uploadDocument",
      "outputs": [
        {
          "internalType": "bool",
          "name": "success",
          "type": "bool"
        }
      ],
      "stateMutability": "nonpayable",
      "type": "function"
    }
  ],
  "bytecode": "0x60806040526000600155600060025534801561001a57600080fd5b5061003761002c61003c60201b60201c565b61004460201b60201c565b610108565b600033905090565b60008060009054906101000a900473ffffffffffffffffffffffffffffffffffffffff169050816000806101000a81548173ffffffffffffffffffffffffffffffffffffffff021916908373ffffffffffffffffffffffffffffffffffffffff1602179055508173ffffffffffffffffffffffffffffffffffffffff168173ffffffffffffffffffffffffffffffffffffffff167f8be0079c531659141344cd1fd0a4f28419497f9722a3daafe3b4186f6b6457e060405160405180910390a35050565b6114d5806101176000396000f3fe608060405234801561001057600080fd5b50600436106100935760003560e01c80638ebd2075116100665780638ebd207514610120578063c8a15cbe14610150578063dc10f57614610180578063ead12575146101b0578063f2fde38b146101e057610093565b806328da13ea14610098578063715018a6146100c857806372c269bb146100d25780638da5cb5b14610102575b600080fd5b6100b260048036038101906100ad91906109da565b6101fc565b6040516100bf9190610a22565b60405180910390f35b6100d061029c565b005b6100ec60048036038101906100e79190610b83565b6102b0565b6040516100f99190610a22565b60405180910390f35b61010a610355565b6040516101179190610caf565b60405180910390f35b61013a60048036038101906101359190610cca565b61037e565b6040516101479190610a22565b60405180910390f35b61016a600480360381019061016591906109da565b6103ef565b6040516101779190610a22565b60405180910390f35b61019a60048036038101906101959190610cca565b61048f565b6040516101a79190610d35565b60405180910390f35b6101ca60048036038101906101c59190610d50565b610642565b6040516101d79190610d35565b60405180910390f35b6101fa60048036038101906101f59190610f26565b6107c3565b005b6000806004600084815260200190815260200160002090506040518060400160405280601681526020017f6164766973696e675f62616e6b5f617070726f7665640000000000000000000081525081600601908161025a919061116a565b507f36207fe4e2aaa1b64e639caa58dd1a7220881b04c773189dfdf5a96c0664fb6f8360405161028a9190610d35565b60405180910390a16001915050919050565b6102a4610846565b6102ae60006108c4565b565b600080600460008881526020019081526020016000209050858160020190816102d9919061116a565b50848160030190816102eb919061116a565b50838160040190816102fd919061116a565b508281600501908161030f919061116a565b507fcdcac9869eba7ac079d26bf8f47614d7c6a1cc2719c800ae6b79edd2eaa3680f8760405161033f9190610d35565b60405180910390a1600191505095945050505050565b60008060009054906101000a900473ffffffffffffffffffffffffffffffffffffffff16905090565b600080600460008581526020019081526020016000209050828160060190816103a7919061116a565b507fc801acad03a7977dbacae243a9259d91c985312f8ba5887ae5bf51ec61935bb784826006016040516103dc9291906112d1565b60405180910390a1600191505092915050565b6000806004600084815260200190815260200160002090506040518060400160405280601681526020017f6164766973696e675f62616e6b5f72656a65637465640000000000000000000081525081600601908161044d919061116a565b507f28975f1df4d22bac827193e174ac7c833b24b5980dc70b76d584988604c57ccc8360405161047d9190610d35565b60405180910390a16001915050919050565b6000600260008154809291906104a490611330565b9190505590506040518061010001604052808281526020018481526020016040518060200160405280600081525081526020016040518060200160405280600081525081526020016040518060200160405280600081525081526020016040518060200160405280600081525081526020016040518060400160405280600781526020017f63726561746564000000000000000000000000000000000000000000000000008152508152602001838152506004600083815260200190815260200160002060008201518160000155602082015181600101556040820151816002019081610591919061116a565b5060608201518160030190816105a7919061116a565b5060808201518160040190816105bd919061116a565b5060a08201518160050190816105d3919061116a565b5060c08201518160060190816105e9919061116a565b5060e08201518160070190816105ff919061116a565b509050507fccaa8df5c38775d94e64193b5f9fb95978252b697889d886aa6a54a46f8ba5558184604051610634929190611378565b60405180910390a192915050565b60006001600081548092919061065790611330565b9190505590506040518061014001604052808281526020018b81526020018a815260200189815260200188815260200187815260200186815260200185815260200184815260200183815250600360008381526020019081526020016000206000820151816000015560208201518160010190816106d5919061116a565b5060408201518160020190816106eb919061116a565b506060820151816003019081610701919061116a565b506080820151816004019081610717919061116a565b5060a082015181600501908161072d919061116a565b5060c0820151816006019081610743919061116a565b5060e0820151816007019081610759919061116a565b50610100820151816008019081610770919061116a565b5061012082015181600901559050507fad060bb0ac45edc2d1c49d6a33248af6171620c38f88205b462456c64512175a816040516107ae9190610d35565b60405180910390a19998505050505050505050565b6107cb610846565b600073ffffffffffffffffffffffffffffffffffffffff168173ffffffffffffffffffffffffffffffffffffffff160361083a576040517f08c379a000000000000000000000000000000000000000000000000000000000815260040161083190611413565b60405180910390fd5b610843816108c4565b50565b61084e610988565b73ffffffffffffffffffffffffffffffffffffffff1661086c610355565b73ffffffffffffffffffffffffffffffffffffffff16146108c2576040517f08c379a00000000000000000000000000000000000000000000000000000000081526004016108b99061147f565b60405180910390fd5b565b60008060009054906101000a900473ffffffffffffffffffffffffffffffffffffffff169050816000806101000a81548173ffffffffffffffffffffffffffffffffffffffff021916908373ffffffffffffffffffffffffffffffffffffffff1602179055508173ffffffffffffffffffffffffffffffffffffffff168173ffffffffffffffffffffffffffffffffffffffff167f8be0079c531659141344cd1fd0a4f28419497f9722a3daafe3b4186f6b6457e060405160405180910390a35050565b600033905090565b6000604051905090565b600080fd5b600080fd5b6000819050919050565b6109b7816109a4565b81146109c257600080fd5b50565b6000813590506109d4816109ae565b92915050565b6000602082840312156109f0576109ef61099a565b5b60006109fe848285016109c5565b91505092915050565b60008115159050919050565b610a1c81610a07565b82525050565b6000602082019050610a376000830184610a13565b92915050565b600080fd5b600080fd5b6000601f19601f8301169050919050565b7f4e487b7100000000000000000000000000000000000000000000000000000000600052604160045260246000fd5b610a9082610a47565b810181811067ffffffffffffffff82111715610aaf57610aae610a58565b5b80604052505050565b6000610ac2610990565b9050610ace8282610a87565b919050565b600067ffffffffffffffff821115610aee57610aed610a58565b5b610af782610a47565b9050602081019050919050565b82818337600083830152505050565b6000610b26610b2184610ad3565b610ab8565b905082815260208101848484011115610b4257610b41610a42565b5b610b4d848285610b04565b509392505050565b600082601f830112610b6a57610b69610a3d565b5b8135610b7a848260208601610b13565b91505092915050565b600080600080600060a08688031215610b9f57610b9e61099a565b5b6000610bad888289016109c5565b955050602086013567ffffffffffffffff811115610bce57610bcd61099f565b5b610bda88828901610b55565b945050604086013567ffffffffffffffff811115610bfb57610bfa61099f565b5b610c0788828901610b55565b935050606086013567ffffffffffffffff811115610c2857610c2761099f565b5b610c3488828901610b55565b925050608086013567ffffffffffffffff811115610c5557610c5461099f565b5b610c6188828901610b55565b9150509295509295909350565b600073ffffffffffffffffffffffffffffffffffffffff82169050919050565b6000610c9982610c6e565b9050919050565b610ca981610c8e565b82525050565b6000602082019050610cc46000830184610ca0565b92915050565b60008060408385031215610ce157610ce061099a565b5b6000610cef858286016109c5565b925050602083013567ffffffffffffffff811115610d1057610d0f61099f565b5b610d1c85828601610b55565b9150509250929050565b610d2f816109a4565b82525050565b6000602082019050610d4a6000830184610d26565b92915050565b60008060008060008060008060006101208a8c031215610d7357610d7261099a565b5b60008a013567ffffffffffffffff811115610d9157610d9061099f565b5b610d9d8c828d01610b55565b99505060208a013567ffffffffffffffff811115610dbe57610dbd61099f565b5b610dca8c828d01610b55565b98505060408a013567ffffffffffffffff811115610deb57610dea61099f565b5b610df78c828d01610b55565b97505060608a013567ffffffffffffffff811115610e1857610e1761099f565b5b610e248c828d01610b55565b96505060808a013567ffffffffffffffff811115610e4557610e4461099f565b5b610e518c828d01610b55565b95505060a08a013567ffffffffffffffff811115610e7257610e7161099f565b5b610e7e8c828d01610b55565b94505060c08a013567ffffffffffffffff811115610e9f57610e9e61099f565b5b610eab8c828d01610b55565b93505060e08a013567ffffffffffffffff811115610ecc57610ecb61099f565b5b610ed88c828d01610b55565b925050610100610eea8c828d016109c5565b9150509295985092959850929598565b610f0381610c8e565b8114610f0e57600080fd5b50565b600081359050610f2081610efa565b92915050565b600060208284031215610f3c57610f3b61099a565b5b6000610f4a84828501610f11565b91505092915050565b600081519050919050565b7f4e487b7100000000000000000000000000000000000000000000000000000000600052602260045260246000fd5b60006002820490506001821680610fa557607f821691505b602082108103610fb857610fb7610f5e565b5b50919050565b60008190508160005260206000209050919050565b60006020601f8301049050919050565b600082821b905092915050565b6000600883026110207fffffffffffffffffffffffffffffffffffffffffffffffffffffffffffffffff82610fe3565b61102a8683610fe3565b95508019841693508086168417925050509392505050565b6000819050919050565b600061106761106261105d846109a4565b611042565b6109a4565b9050919050565b6000819050919050565b6110818361104c565b61109561108d8261106e565b848454610ff0565b825550505050565b600090565b6110aa61109d565b6110b5818484611078565b505050565b5b818110156110d9576110ce6000826110a2565b6001810190506110bb565b5050565b601f82111561111e576110ef81610fbe565b6110f884610fd3565b81016020851015611107578190505b61111b61111385610fd3565b8301826110ba565b50505b505050565b600082821c905092915050565b600061114160001984600802611123565b1980831691505092915050565b600061115a8383611130565b9150826002028217905092915050565b61117382610f53565b67ffffffffffffffff81111561118c5761118b610a58565b5b6111968254610f8d565b6111a18282856110dd565b600060209050601f8311600181146111d457600084156111c2578287015190505b6111cc858261114e565b865550611234565b601f1984166111e286610fbe565b60005b8281101561120a578489015182556001820191506020850194506020810190506111e5565b868310156112275784890151611223601f891682611130565b8355505b6001600288020188555050505b505050505050565b600082825260208201905092915050565b6000815461125a81610f8d565b611264818661123c565b9450600182166000811461127f5760018114611295576112c8565b60ff1983168652811515602002860193506112c8565b61129e85610fbe565b60005b838110156112c0578154818901526001820191506020810190506112a1565b808801955050505b50505092915050565b60006040820190506112e66000830185610d26565b81810360208301526112f8818461124d565b90509392505050565b7f4e487b7100000000000000000000000000000000000000000000000000000000600052601160045260246000fd5b600061133b826109a4565b91507fffffffffffffffffffffffffffffffffffffffffffffffffffffffffffffffff820361136d5761136c611301565b5b600182019050919050565b600060408201905061138d6000830185610d26565b61139a6020830184610d26565b9392505050565b7f4f776e61626c653a206e6577206f776e657220697320746865207a65726f206160008201527f6464726573730000000000000000000000000000000000000000000000000000602082015250565b60006113fd60268361123c565b9150611408826113a1565b604082019050919050565b6000602082019050818103600083015261142c816113f0565b9050919050565b7f4f776e61626c653a2063616c6c6572206973206e6f7420746865206f776e6572600082015250565b600061146960208361123c565b915061147482611433565b602082019050919050565b600060208201905081810360008301526114988161145c565b905091905056fea2646970667358221220889ec6b067a12d502e50e0c9d2c5776a459554bf920e24b8ee52b73f1d77c56864736f6c63430008120033",
  "linkReferences": {},
  "deployedLinkReferences": {}
}