{
  "_format": "hh-sol-artifact-1",
  "contractName": "TradeFinance",
  "sourceName": "contracts/TradeFinance.sol",
  "abi": [
    {
      "anonymous": false,
      "inputs": [
        {
          "indexed": false,
          "internalType": "uint256",
          "name": "lcID",
          "type": "uint256"
        }
      ],
      "name": "DocUploaded",
      "type": "event"
    },
    {
      "anonymous": false,
      "inputs": [
        {
          "indexed": false,
          "internalType": "uint256",
          "name": "lcID",
          "type": "uint256"
        },
        {
          "indexed": false,
          "internalType": "uint256",
          "name": "salesContractID",
          "type": "uint256"
        }
      ],
      "name": "LcCreated",
      "type": "event"
    },
    {
      "anonymous": false,
      "inputs": [
        {
          "indexed": true,
          "internalType": "address",
          "name": "previousOwner",
          "type": "address"
        },
        {
          "indexed": true,
          "internalType": "address",
          "name": "newOwner",
          "type": "address"
        }
      ],
      "name": "OwnershipTransferred",
      "type": "event"
    },
    {
      "anonymous": false,
      "inputs": [
        {
          "indexed": false,
          "internalType": "uint256",
          "name": "salesContractID",
          "type": "uint256"
        }
      ],
      "name": "SalesContractCreated",
      "type": "event"
    },
    {
      "inputs": [
        {
          "internalType": "string",
          "name": "name",
          "type": "string"
        },
        {
          "internalType": "address",
          "name": "bankAddress",
          "type": "address"
        }
      ],
      "name": "addBank",
      "outputs": [
        {
          "internalType": "uint256",
          "name": "bankID",
          "type": "uint256"
        }
      ],
      "stateMutability": "nonpayable",
      "type": "function"
    },
    {
      "inputs": [
        {
          "internalType": "uint256",
          "name": "lcID",
          "type": "uint256"
        }
      ],
      "name": "approveLC",
      "outputs": [
        {
          "internalType": "bool",
          "name": "sucess",
          "type": "bool"
        }
      ],
      "stateMutability": "nonpayable",
      "type": "function"
    },
    {
      "inputs": [
        {
          "internalType": "uint256",
          "name": "lcID",
          "type": "uint256"
        },
        {
          "internalType": "string",
          "name": "status",
          "type": "string"
        }
      ],
      "name": "changeLcStatus",
      "outputs": [
        {
          "internalType": "bool",
          "name": "success",
          "type": "bool"
        }
      ],
      "stateMutability": "nonpayable",
      "type": "function"
    },
    {
      "inputs": [
        {
          "internalType": "uint256",
          "name": "salesContractID",
          "type": "uint256"
        },
        {
          "internalType": "string",
          "name": "startDate",
          "type": "string"
        }
      ],
      "name": "createLC",
      "outputs": [
        {
          "internalType": "uint256",
          "name": "lcID",
          "type": "uint256"
        }
      ],
      "stateMutability": "nonpayable",
      "type": "function"
    },
    {
      "inputs": [
        {
          "internalType": "string",
          "name": "importer",
          "type": "string"
        },
        {
          "internalType": "string",
          "name": "exporter",
          "type": "string"
        },
        {
          "internalType": "string",
          "name": "issuingBank",
          "type": "string"
        },
        {
          "internalType": "string",
          "name": "advisingBank",
          "type": "string"
        },
        {
          "internalType": "address",
          "name": "issuingBankAddress",
          "type": "address"
        },
        {
          "internalType": "address",
          "name": "advisingBankAddress",
          "type": "address"
        },
        {
          "internalType": "string",
          "name": "commodity",
          "type": "string"
        },
        {
          "internalType": "string",
          "name": "price",
          "type": "string"
        },
        {
          "internalType": "string",
          "name": "paymentMethod",
          "type": "string"
        },
        {
          "internalType": "string",
          "name": "additionalInfo",
          "type": "string"
        },
        {
          "internalType": "uint256",
          "name": "deadline",
          "type": "uint256"
        }
      ],
      "name": "createSalesContract",
      "outputs": [
        {
          "internalType": "uint256",
          "name": "salesContractID",
          "type": "uint256"
        }
      ],
      "stateMutability": "nonpayable",
      "type": "function"
    },
    {
      "inputs": [],
      "name": "getAllBankAddress",
      "outputs": [
        {
          "internalType": "address[]",
          "name": "",
          "type": "address[]"
        }
      ],
      "stateMutability": "view",
      "type": "function"
    },
    {
      "inputs": [
        {
          "internalType": "uint256",
          "name": "id",
          "type": "uint256"
        }
      ],
      "name": "getBank",
      "outputs": [
        {
          "internalType": "address",
          "name": "bankAddress",
          "type": "address"
        },
        {
          "internalType": "string",
          "name": "name",
          "type": "string"
        }
      ],
      "stateMutability": "view",
      "type": "function"
    },
    {
      "inputs": [],
      "name": "owner",
      "outputs": [
        {
          "internalType": "address",
          "name": "",
          "type": "address"
        }
      ],
      "stateMutability": "view",
      "type": "function"
    },
    {
      "inputs": [
        {
          "internalType": "uint256",
          "name": "lcID",
          "type": "uint256"
        }
      ],
      "name": "rejectLC",
      "outputs": [
        {
          "internalType": "bool",
          "name": "sucess",
          "type": "bool"
        }
      ],
      "stateMutability": "nonpayable",
      "type": "function"
    },
    {
      "inputs": [],
      "name": "renounceOwnership",
      "outputs": [],
      "stateMutability": "nonpayable",
      "type": "function"
    },
    {
      "inputs": [
        {
          "internalType": "address",
          "name": "newOwner",
          "type": "address"
        }
      ],
      "name": "transferOwnership",
      "outputs": [],
      "stateMutability": "nonpayable",
      "type": "function"
    },
    {
      "inputs": [
        {
          "internalType": "uint256",
          "name": "lcID",
          "type": "uint256"
        },
        {
          "internalType": "string",
          "name": "invoice",
          "type": "string"
        },
        {
          "internalType": "string",
          "name": "exchange",
          "type": "string"
        },
        {
          "internalType": "string",
          "name": "lading",
          "type": "string"
        },
        {
          "internalType": "string",
          "name": "other",
          "type": "string"
        }
      ],
      "name": "uploadDocument",
      "outputs": [
        {
          "internalType": "bool",
          "name": "success",
          "type": "bool"
        }
      ],
      "stateMutability": "nonpayable",
      "type": "function"
    }
  ],
  "bytecode": "0x608060405260006001556000600255600060035534801561001f57600080fd5b5061003c61003161004160201b60201c565b61004960201b60201c565b61010d565b600033905090565b60008060009054906101000a900473ffffffffffffffffffffffffffffffffffffffff169050816000806101000a81548173ffffffffffffffffffffffffffffffffffffffff021916908373ffffffffffffffffffffffffffffffffffffffff1602179055508173ffffffffffffffffffffffffffffffffffffffff168173ffffffffffffffffffffffffffffffffffffffff167f8be0079c531659141344cd1fd0a4f28419497f9722a3daafe3b4186f6b6457e060405160405180910390a35050565b611f928061011c6000396000f3fe608060405234801561001057600080fd5b50600436106100b45760003560e01c80638ebd2075116100715780638ebd20751461018f578063c3b95b1b146101bf578063c8a15cbe146101f0578063dc10f57614610220578063ecfeae3a14610250578063f2fde38b14610280576100b4565b806328da13ea146100b9578063637b3a60146100e9578063715018a61461010757806372c269bb14610111578063855a750e146101415780638da5cb5b14610171575b600080fd5b6100d360048036038101906100ce91906110db565b61029c565b6040516100e09190611123565b60405180910390f35b6100f16103b3565b6040516100fe919061122e565b60405180910390f35b61010f6104b8565b005b61012b60048036038101906101269190611396565b6104cc565b6040516101389190611123565b60405180910390f35b61015b600480360381019061015691906114ad565b610642565b6040516101689190611690565b60405180910390f35b6101796108ea565b60405161018691906116ba565b60405180910390f35b6101a960048036038101906101a491906116d5565b610913565b6040516101b69190611123565b60405180910390f35b6101d960048036038101906101d491906110db565b6109f6565b6040516101e79291906117b0565b60405180910390f35b61020a600480360381019061020591906110db565b610ad9565b6040516102179190611123565b60405180910390f35b61023a600480360381019061023591906116d5565b610bf0565b6040516102479190611690565b60405180910390f35b61026a600480360381019061026591906117e0565b610e36565b6040516102779190611690565b60405180910390f35b61029a6004803603810190610295919061183c565b610ec4565b005b6000806006600084815260200190815260200160002090506000600560008360000154815260200190815260200160002090508060050160009054906101000a900473ffffffffffffffffffffffffffffffffffffffff1673ffffffffffffffffffffffffffffffffffffffff163373ffffffffffffffffffffffffffffffffffffffff1614610361576040517f08c379a0000000000000000000000000000000000000000000000000000000008152600401610358906118db565b60405180910390fd5b6040518060400160405280601681526020017f6164766973696e675f62616e6b5f617070726f766564000000000000000000008152508260050190816103a79190611b07565b50600192505050919050565b60606103bd610f47565b600060015467ffffffffffffffff8111156103db576103da61126b565b5b6040519080825280602002602001820160405280156104095781602001602082028036833780820191505090505b50905060005b6001548110156104b0576004600082815260200190815260200160002060010160009054906101000a900473ffffffffffffffffffffffffffffffffffffffff1682828151811061046357610462611bd9565b5b602002602001019073ffffffffffffffffffffffffffffffffffffffff16908173ffffffffffffffffffffffffffffffffffffffff168152505080806104a890611c37565b91505061040f565b508091505090565b6104c0610f47565b6104ca6000610fc5565b565b6000806006600088815260200190815260200160002090506000600560008360000154815260200190815260200160002090508060050160009054906101000a900473ffffffffffffffffffffffffffffffffffffffff1673ffffffffffffffffffffffffffffffffffffffff163373ffffffffffffffffffffffffffffffffffffffff1614806105ac57508060040160009054906101000a900473ffffffffffffffffffffffffffffffffffffffff1673ffffffffffffffffffffffffffffffffffffffff163373ffffffffffffffffffffffffffffffffffffffff16145b6105eb576040517f08c379a00000000000000000000000000000000000000000000000000000000081526004016105e290611cf1565b60405180910390fd5b868260010190816105fc9190611b07565b508582600201908161060e9190611b07565b50848260030190816106209190611b07565b50838260040190816106329190611b07565b5060019250505095945050505050565b60008773ffffffffffffffffffffffffffffffffffffffff163373ffffffffffffffffffffffffffffffffffffffff16146106b2576040517f08c379a00000000000000000000000000000000000000000000000000000000081526004016106a990611d83565b60405180910390fd5b600260008154809291906106c590611c37565b9190505590506040518061016001604052808d81526020018c81526020018b81526020018a81526020018973ffffffffffffffffffffffffffffffffffffffff1681526020018873ffffffffffffffffffffffffffffffffffffffff1681526020018781526020018681526020018581526020018481526020018381525060056000838152602001908152602001600020600082015181600001908161076b9190611b07565b5060208201518160010190816107819190611b07565b5060408201518160020190816107979190611b07565b5060608201518160030190816107ad9190611b07565b5060808201518160040160006101000a81548173ffffffffffffffffffffffffffffffffffffffff021916908373ffffffffffffffffffffffffffffffffffffffff16021790555060a08201518160050160006101000a81548173ffffffffffffffffffffffffffffffffffffffff021916908373ffffffffffffffffffffffffffffffffffffffff16021790555060c08201518160060190816108519190611b07565b5060e08201518160070190816108679190611b07565b5061010082015181600801908161087e9190611b07565b506101208201518160090190816108959190611b07565b5061014082015181600a01559050507fad060bb0ac45edc2d1c49d6a33248af6171620c38f88205b462456c64512175a816040516108d39190611690565b60405180910390a19b9a5050505050505050505050565b60008060009054906101000a900473ffffffffffffffffffffffffffffffffffffffff16905090565b6000806006600085815260200190815260200160002090506000600560008360000154815260200190815260200160002090508060050160009054906101000a900473ffffffffffffffffffffffffffffffffffffffff1673ffffffffffffffffffffffffffffffffffffffff163373ffffffffffffffffffffffffffffffffffffffff16146109d8576040517f08c379a00000000000000000000000000000000000000000000000000000000081526004016109cf906118db565b60405180910390fd5b838260050190816109e99190611b07565b5060019250505092915050565b600060606004600084815260200190815260200160002060010160009054906101000a900473ffffffffffffffffffffffffffffffffffffffff169150600460008481526020019081526020016000206000018054610a549061192a565b80601f0160208091040260200160405190810160405280929190818152602001828054610a809061192a565b8015610acd5780601f10610aa257610100808354040283529160200191610acd565b820191906000526020600020905b815481529060010190602001808311610ab057829003601f168201915b50505050509050915091565b6000806006600084815260200190815260200160002090506000600560008360000154815260200190815260200160002090508060050160009054906101000a900473ffffffffffffffffffffffffffffffffffffffff1673ffffffffffffffffffffffffffffffffffffffff163373ffffffffffffffffffffffffffffffffffffffff1614610b9e576040517f08c379a0000000000000000000000000000000000000000000000000000000008152600401610b95906118db565b60405180910390fd5b6040518060400160405280601681526020017f6164766973696e675f62616e6b5f72656a656374656400000000000000000000815250826005019081610be49190611b07565b50600192505050919050565b60006005600084815260200190815260200160002060040160009054906101000a900473ffffffffffffffffffffffffffffffffffffffff1673ffffffffffffffffffffffffffffffffffffffff163373ffffffffffffffffffffffffffffffffffffffff1614610c96576040517f08c379a0000000000000000000000000000000000000000000000000000000008152600401610c8d90611e15565b60405180910390fd5b60036000815480929190610ca990611c37565b9190505590506040518060e001604052808481526020016040518060200160405280600081525081526020016040518060200160405280600081525081526020016040518060200160405280600081525081526020016040518060200160405280600081525081526020016040518060400160405280600781526020017f637265617465640000000000000000000000000000000000000000000000000081525081526020018381525060066000838152602001908152602001600020600082015181600001556020820151816001019081610d859190611b07565b506040820151816002019081610d9b9190611b07565b506060820151816003019081610db19190611b07565b506080820151816004019081610dc79190611b07565b5060a0820151816005019081610ddd9190611b07565b5060c0820151816006019081610df39190611b07565b509050507fccaa8df5c38775d94e64193b5f9fb95978252b697889d886aa6a54a46f8ba5558184604051610e28929190611e35565b60405180910390a192915050565b600060016000815480929190610e4b90611c37565b919050559050600060046000838152602001908152602001600020905083816000019081610e799190611b07565b50828160010160006101000a81548173ffffffffffffffffffffffffffffffffffffffff021916908373ffffffffffffffffffffffffffffffffffffffff1602179055505092915050565b610ecc610f47565b600073ffffffffffffffffffffffffffffffffffffffff168173ffffffffffffffffffffffffffffffffffffffff1603610f3b576040517f08c379a0000000000000000000000000000000000000000000000000000000008152600401610f3290611ed0565b60405180910390fd5b610f4481610fc5565b50565b610f4f611089565b73ffffffffffffffffffffffffffffffffffffffff16610f6d6108ea565b73ffffffffffffffffffffffffffffffffffffffff1614610fc3576040517f08c379a0000000000000000000000000000000000000000000000000000000008152600401610fba90611f3c565b60405180910390fd5b565b60008060009054906101000a900473ffffffffffffffffffffffffffffffffffffffff169050816000806101000a81548173ffffffffffffffffffffffffffffffffffffffff021916908373ffffffffffffffffffffffffffffffffffffffff1602179055508173ffffffffffffffffffffffffffffffffffffffff168173ffffffffffffffffffffffffffffffffffffffff167f8be0079c531659141344cd1fd0a4f28419497f9722a3daafe3b4186f6b6457e060405160405180910390a35050565b600033905090565b6000604051905090565b600080fd5b600080fd5b6000819050919050565b6110b8816110a5565b81146110c357600080fd5b50565b6000813590506110d5816110af565b92915050565b6000602082840312156110f1576110f061109b565b5b60006110ff848285016110c6565b91505092915050565b60008115159050919050565b61111d81611108565b82525050565b60006020820190506111386000830184611114565b92915050565b600081519050919050565b600082825260208201905092915050565b6000819050602082019050919050565b600073ffffffffffffffffffffffffffffffffffffffff82169050919050565b60006111958261116a565b9050919050565b6111a58161118a565b82525050565b60006111b7838361119c565b60208301905092915050565b6000602082019050919050565b60006111db8261113e565b6111e58185611149565b93506111f08361115a565b8060005b8381101561122157815161120888826111ab565b9750611213836111c3565b9250506001810190506111f4565b5085935050505092915050565b6000602082019050818103600083015261124881846111d0565b905092915050565b600080fd5b600080fd5b6000601f19601f8301169050919050565b7f4e487b7100000000000000000000000000000000000000000000000000000000600052604160045260246000fd5b6112a38261125a565b810181811067ffffffffffffffff821117156112c2576112c161126b565b5b80604052505050565b60006112d5611091565b90506112e1828261129a565b919050565b600067ffffffffffffffff8211156113015761130061126b565b5b61130a8261125a565b9050602081019050919050565b82818337600083830152505050565b6000611339611334846112e6565b6112cb565b90508281526020810184848401111561135557611354611255565b5b611360848285611317565b509392505050565b600082601f83011261137d5761137c611250565b5b813561138d848260208601611326565b91505092915050565b600080600080600060a086880312156113b2576113b161109b565b5b60006113c0888289016110c6565b955050602086013567ffffffffffffffff8111156113e1576113e06110a0565b5b6113ed88828901611368565b945050604086013567ffffffffffffffff81111561140e5761140d6110a0565b5b61141a88828901611368565b935050606086013567ffffffffffffffff81111561143b5761143a6110a0565b5b61144788828901611368565b925050608086013567ffffffffffffffff811115611468576114676110a0565b5b61147488828901611368565b9150509295509295909350565b61148a8161118a565b811461149557600080fd5b50565b6000813590506114a781611481565b92915050565b60008060008060008060008060008060006101608c8e0312156114d3576114d261109b565b5b60008c013567ffffffffffffffff8111156114f1576114f06110a0565b5b6114fd8e828f01611368565b9b505060208c013567ffffffffffffffff81111561151e5761151d6110a0565b5b61152a8e828f01611368565b9a505060408c013567ffffffffffffffff81111561154b5761154a6110a0565b5b6115578e828f01611368565b99505060608c013567ffffffffffffffff811115611578576115776110a0565b5b6115848e828f01611368565b98505060806115958e828f01611498565b97505060a06115a68e828f01611498565b96505060c08c013567ffffffffffffffff8111156115c7576115c66110a0565b5b6115d38e828f01611368565b95505060e08c013567ffffffffffffffff8111156115f4576115f36110a0565b5b6116008e828f01611368565b9450506101008c013567ffffffffffffffff811115611622576116216110a0565b5b61162e8e828f01611368565b9350506101208c013567ffffffffffffffff8111156116505761164f6110a0565b5b61165c8e828f01611368565b92505061014061166e8e828f016110c6565b9150509295989b509295989b9093969950565b61168a816110a5565b82525050565b60006020820190506116a56000830184611681565b92915050565b6116b48161118a565b82525050565b60006020820190506116cf60008301846116ab565b92915050565b600080604083850312156116ec576116eb61109b565b5b60006116fa858286016110c6565b925050602083013567ffffffffffffffff81111561171b5761171a6110a0565b5b61172785828601611368565b9150509250929050565b600081519050919050565b600082825260208201905092915050565b60005b8381101561176b578082015181840152602081019050611750565b60008484015250505050565b600061178282611731565b61178c818561173c565b935061179c81856020860161174d565b6117a58161125a565b840191505092915050565b60006040820190506117c560008301856116ab565b81810360208301526117d78184611777565b90509392505050565b600080604083850312156117f7576117f661109b565b5b600083013567ffffffffffffffff811115611815576118146110a0565b5b61182185828601611368565b925050602061183285828601611498565b9150509250929050565b6000602082840312156118525761185161109b565b5b600061186084828501611498565b91505092915050565b7f4f6e6c7920616476697373696e672062616e6b2063616e206368616e6765207460008201527f686973204c43207374617475732e000000000000000000000000000000000000602082015250565b60006118c5602e8361173c565b91506118d082611869565b604082019050919050565b600060208201905081810360008301526118f4816118b8565b9050919050565b7f4e487b7100000000000000000000000000000000000000000000000000000000600052602260045260246000fd5b6000600282049050600182168061194257607f821691505b602082108103611955576119546118fb565b5b50919050565b60008190508160005260206000209050919050565b60006020601f8301049050919050565b600082821b905092915050565b6000600883026119bd7fffffffffffffffffffffffffffffffffffffffffffffffffffffffffffffffff82611980565b6119c78683611980565b95508019841693508086168417925050509392505050565b6000819050919050565b6000611a046119ff6119fa846110a5565b6119df565b6110a5565b9050919050565b6000819050919050565b611a1e836119e9565b611a32611a2a82611a0b565b84845461198d565b825550505050565b600090565b611a47611a3a565b611a52818484611a15565b505050565b5b81811015611a7657611a6b600082611a3f565b600181019050611a58565b5050565b601f821115611abb57611a8c8161195b565b611a9584611970565b81016020851015611aa4578190505b611ab8611ab085611970565b830182611a57565b50505b505050565b600082821c905092915050565b6000611ade60001984600802611ac0565b1980831691505092915050565b6000611af78383611acd565b9150826002028217905092915050565b611b1082611731565b67ffffffffffffffff811115611b2957611b2861126b565b5b611b33825461192a565b611b3e828285611a7a565b600060209050601f831160018114611b715760008415611b5f578287015190505b611b698582611aeb565b865550611bd1565b601f198416611b7f8661195b565b60005b82811015611ba757848901518255600182019150602085019450602081019050611b82565b86831015611bc45784890151611bc0601f891682611acd565b8355505b6001600288020188555050505b505050505050565b7f4e487b7100000000000000000000000000000000000000000000000000000000600052603260045260246000fd5b7f4e487b7100000000000000000000000000000000000000000000000000000000600052601160045260246000fd5b6000611c42826110a5565b91507fffffffffffffffffffffffffffffffffffffffffffffffffffffffffffffffff8203611c7457611c73611c08565b5b600182019050919050565b7f4f6e6c792062616e6b2063616e2075706c6f616420746865736520646f63756d60008201527f656e742e00000000000000000000000000000000000000000000000000000000602082015250565b6000611cdb60248361173c565b9150611ce682611c7f565b604082019050919050565b60006020820190508181036000830152611d0a81611cce565b9050919050565b7f4f6e6c792069737375696e672062616e6b2063616e20637265617465206e657760008201527f2073616c6573636f6e7472616374206f6e20626c6f636b636861696e00000000602082015250565b6000611d6d603c8361173c565b9150611d7882611d11565b604082019050919050565b60006020820190508181036000830152611d9c81611d60565b9050919050565b7f4f6e6c792069737375696e672062616e6b2063616e206372656174652061204c60008201527f4300000000000000000000000000000000000000000000000000000000000000602082015250565b6000611dff60218361173c565b9150611e0a82611da3565b604082019050919050565b60006020820190508181036000830152611e2e81611df2565b9050919050565b6000604082019050611e4a6000830185611681565b611e576020830184611681565b9392505050565b7f4f776e61626c653a206e6577206f776e657220697320746865207a65726f206160008201527f6464726573730000000000000000000000000000000000000000000000000000602082015250565b6000611eba60268361173c565b9150611ec582611e5e565b604082019050919050565b60006020820190508181036000830152611ee981611ead565b9050919050565b7f4f776e61626c653a2063616c6c6572206973206e6f7420746865206f776e6572600082015250565b6000611f2660208361173c565b9150611f3182611ef0565b602082019050919050565b60006020820190508181036000830152611f5581611f19565b905091905056fea264697066735822122014894589aaf6ce36affa7b485d8088a7663c7317223fd5e46fd5d0c9e657502264736f6c63430008120033",
  "linkReferences": {},
  "deployedLinkReferences": {}
}