{
  "_format": "hh-sol-artifact-1",
  "contractName": "TradeFinance",
  "sourceName": "contracts/TradeFinance.sol",
  "abi": [
    {
      "anonymous": false,
      "inputs": [
        {
          "indexed": false,
          "internalType": "uint256",
          "name": "lcID",
          "type": "uint256"
        }
      ],
      "name": "DocUploaded",
      "type": "event"
    },
    {
      "anonymous": false,
      "inputs": [
        {
          "indexed": false,
          "internalType": "uint256",
          "name": "lcID",
          "type": "uint256"
        },
        {
          "indexed": false,
          "internalType": "uint256",
          "name": "salesContractID",
          "type": "uint256"
        }
      ],
      "name": "LcCreated",
      "type": "event"
    },
    {
      "anonymous": false,
      "inputs": [
        {
          "indexed": true,
          "internalType": "address",
          "name": "previousOwner",
          "type": "address"
        },
        {
          "indexed": true,
          "internalType": "address",
          "name": "newOwner",
          "type": "address"
        }
      ],
      "name": "OwnershipTransferred",
      "type": "event"
    },
    {
      "anonymous": false,
      "inputs": [
        {
          "indexed": false,
          "internalType": "uint256",
          "name": "salesContractID",
          "type": "uint256"
        }
      ],
      "name": "SalesContractCreated",
      "type": "event"
    },
    {
      "inputs": [
        {
          "internalType": "string",
          "name": "name",
          "type": "string"
        },
        {
          "internalType": "address",
          "name": "bankAddress",
          "type": "address"
        }
      ],
      "name": "addBank",
      "outputs": [
        {
          "internalType": "uint256",
          "name": "bankID",
          "type": "uint256"
        }
      ],
      "stateMutability": "nonpayable",
      "type": "function"
    },
    {
      "inputs": [
        {
          "internalType": "uint256",
          "name": "lcID",
          "type": "uint256"
        }
      ],
      "name": "approveLC",
      "outputs": [
        {
          "internalType": "bool",
          "name": "sucess",
          "type": "bool"
        }
      ],
      "stateMutability": "nonpayable",
      "type": "function"
    },
    {
      "inputs": [
        {
          "internalType": "uint256",
          "name": "lcID",
          "type": "uint256"
        },
        {
          "internalType": "string",
          "name": "status",
          "type": "string"
        }
      ],
      "name": "changeLcStatus",
      "outputs": [
        {
          "internalType": "bool",
          "name": "success",
          "type": "bool"
        }
      ],
      "stateMutability": "nonpayable",
      "type": "function"
    },
    {
      "inputs": [
        {
          "internalType": "uint256",
          "name": "salesContractID",
          "type": "uint256"
        },
        {
          "internalType": "string",
          "name": "startDate",
          "type": "string"
        }
      ],
      "name": "createLC",
      "outputs": [
        {
          "internalType": "uint256",
          "name": "lcID",
          "type": "uint256"
        }
      ],
      "stateMutability": "nonpayable",
      "type": "function"
    },
    {
      "inputs": [
        {
          "internalType": "string",
          "name": "importer",
          "type": "string"
        },
        {
          "internalType": "string",
          "name": "exporter",
          "type": "string"
        },
        {
          "internalType": "uint256",
          "name": "issuingBankID",
          "type": "uint256"
        },
        {
          "internalType": "uint256",
          "name": "advisingBankID",
          "type": "uint256"
        },
        {
          "internalType": "string",
          "name": "commodity",
          "type": "string"
        },
        {
          "internalType": "string",
          "name": "price",
          "type": "string"
        },
        {
          "internalType": "string",
          "name": "paymentMethod",
          "type": "string"
        },
        {
          "internalType": "string",
          "name": "additionalInfo",
          "type": "string"
        },
        {
          "internalType": "uint256",
          "name": "deadline",
          "type": "uint256"
        }
      ],
      "name": "createSalesContract",
      "outputs": [
        {
          "internalType": "uint256",
          "name": "salesContractID",
          "type": "uint256"
        }
      ],
      "stateMutability": "nonpayable",
      "type": "function"
    },
    {
      "inputs": [],
      "name": "getAllBankAddress",
      "outputs": [
        {
          "internalType": "address[]",
          "name": "",
          "type": "address[]"
        }
      ],
      "stateMutability": "view",
      "type": "function"
    },
    {
      "inputs": [
        {
          "internalType": "uint256",
          "name": "id",
          "type": "uint256"
        }
      ],
      "name": "getBank",
      "outputs": [
        {
          "internalType": "address",
          "name": "bankAddress",
          "type": "address"
        },
        {
          "internalType": "string",
          "name": "name",
          "type": "string"
        }
      ],
      "stateMutability": "view",
      "type": "function"
    },
    {
      "inputs": [],
      "name": "owner",
      "outputs": [
        {
          "internalType": "address",
          "name": "",
          "type": "address"
        }
      ],
      "stateMutability": "view",
      "type": "function"
    },
    {
      "inputs": [
        {
          "internalType": "uint256",
          "name": "lcID",
          "type": "uint256"
        }
      ],
      "name": "rejectLC",
      "outputs": [
        {
          "internalType": "bool",
          "name": "sucess",
          "type": "bool"
        }
      ],
      "stateMutability": "nonpayable",
      "type": "function"
    },
    {
      "inputs": [],
      "name": "renounceOwnership",
      "outputs": [],
      "stateMutability": "nonpayable",
      "type": "function"
    },
    {
      "inputs": [
        {
          "internalType": "address",
          "name": "newOwner",
          "type": "address"
        }
      ],
      "name": "transferOwnership",
      "outputs": [],
      "stateMutability": "nonpayable",
      "type": "function"
    },
    {
      "inputs": [
        {
          "internalType": "uint256",
          "name": "lcID",
          "type": "uint256"
        },
        {
          "internalType": "string",
          "name": "invoice",
          "type": "string"
        },
        {
          "internalType": "string",
          "name": "exchange",
          "type": "string"
        },
        {
          "internalType": "string",
          "name": "lading",
          "type": "string"
        },
        {
          "internalType": "string",
          "name": "other",
          "type": "string"
        }
      ],
      "name": "uploadDocument",
      "outputs": [
        {
          "internalType": "bool",
          "name": "success",
          "type": "bool"
        }
      ],
      "stateMutability": "nonpayable",
      "type": "function"
    }
  ],
  "bytecode": "0x608060405260006001556000600255600060035534801561001f57600080fd5b5061003c61003161004160201b60201c565b61004960201b60201c565b61010d565b600033905090565b60008060009054906101000a900473ffffffffffffffffffffffffffffffffffffffff169050816000806101000a81548173ffffffffffffffffffffffffffffffffffffffff021916908373ffffffffffffffffffffffffffffffffffffffff1602179055508173ffffffffffffffffffffffffffffffffffffffff168173ffffffffffffffffffffffffffffffffffffffff167f8be0079c531659141344cd1fd0a4f28419497f9722a3daafe3b4186f6b6457e060405160405180910390a35050565b6119408061011c6000396000f3fe608060405234801561001057600080fd5b50600436106100b45760003560e01c80638ebd2075116100715780638ebd20751461018f578063c3b95b1b146101bf578063c8a15cbe146101f0578063dc10f57614610220578063ecfeae3a14610250578063f2fde38b14610280576100b4565b806328da13ea146100b9578063637b3a60146100e95780637011897514610107578063715018a61461013757806372c269bb146101415780638da5cb5b14610171575b600080fd5b6100d360048036038101906100ce9190610ca1565b61029c565b6040516100e09190610ce9565b60405180910390f35b6100f1610305565b6040516100fe9190610df4565b60405180910390f35b610121600480360381019061011c9190610f5c565b61040a565b60405161012e91906110dd565b60405180910390f35b61013f61061d565b005b61015b600480360381019061015691906110f8565b610631565b6040516101689190610ce9565b60405180910390f35b61017961069f565b60405161018691906111f2565b60405180910390f35b6101a960048036038101906101a4919061120d565b6106c8565b6040516101b69190610ce9565b60405180910390f35b6101d960048036038101906101d49190610ca1565b6106fd565b6040516101e79291906112e8565b60405180910390f35b61020a60048036038101906102059190610ca1565b6107e0565b6040516102179190610ce9565b60405180910390f35b61023a6004803603810190610235919061120d565b610849565b60405161024791906110dd565b60405180910390f35b61026a60048036038101906102659190611344565b6109fc565b60405161027791906110dd565b60405180910390f35b61029a600480360381019061029591906113a0565b610a8a565b005b6000806006600084815260200190815260200160002090506040518060400160405280601681526020017f6164766973696e675f62616e6b5f617070726f766564000000000000000000008152508160060190816102fa91906115d9565b506001915050919050565b606061030f610b0d565b600060015467ffffffffffffffff81111561032d5761032c610e31565b5b60405190808252806020026020018201604052801561035b5781602001602082028036833780820191505090505b50905060005b600154811015610402576004600082815260200190815260200160002060010160009054906101000a900473ffffffffffffffffffffffffffffffffffffffff168282815181106103b5576103b46116ab565b5b602002602001019073ffffffffffffffffffffffffffffffffffffffff16908173ffffffffffffffffffffffffffffffffffffffff168152505080806103fa90611709565b915050610361565b508091505090565b60008060006104188a6106fd565b915091506000806104288b6106fd565b915091508373ffffffffffffffffffffffffffffffffffffffff163373ffffffffffffffffffffffffffffffffffffffff161461049a576040517f08c379a0000000000000000000000000000000000000000000000000000000008152600401610491906117c3565b60405180910390fd5b600260008154809291906104ad90611709565b9190505594506040518061014001604052808681526020018f81526020018e81526020018481526020018281526020018b81526020018a8152602001898152602001888152602001878152506005600087815260200190815260200160002060008201518160000155602082015181600101908161052b91906115d9565b50604082015181600201908161054191906115d9565b50606082015181600301908161055791906115d9565b50608082015181600401908161056d91906115d9565b5060a082015181600501908161058391906115d9565b5060c082015181600601908161059991906115d9565b5060e08201518160070190816105af91906115d9565b506101008201518160080190816105c691906115d9565b5061012082015181600901559050507fad060bb0ac45edc2d1c49d6a33248af6171620c38f88205b462456c64512175a8560405161060491906110dd565b60405180910390a1505050509998505050505050505050565b610625610b0d565b61062f6000610b8b565b565b6000806006600088815260200190815260200160002090508581600201908161065a91906115d9565b508481600301908161066c91906115d9565b508381600401908161067e91906115d9565b508281600501908161069091906115d9565b50600191505095945050505050565b60008060009054906101000a900473ffffffffffffffffffffffffffffffffffffffff16905090565b600080600660008581526020019081526020016000209050828160060190816106f191906115d9565b50600191505092915050565b600060606004600084815260200190815260200160002060010160009054906101000a900473ffffffffffffffffffffffffffffffffffffffff16915060046000848152602001908152602001600020600001805461075b906113fc565b80601f0160208091040260200160405190810160405280929190818152602001828054610787906113fc565b80156107d45780601f106107a9576101008083540402835291602001916107d4565b820191906000526020600020905b8154815290600101906020018083116107b757829003601f168201915b50505050509050915091565b6000806006600084815260200190815260200160002090506040518060400160405280601681526020017f6164766973696e675f62616e6b5f72656a65637465640000000000000000000081525081600601908161083e91906115d9565b506001915050919050565b60006003600081548092919061085e90611709565b9190505590506040518061010001604052808281526020018481526020016040518060200160405280600081525081526020016040518060200160405280600081525081526020016040518060200160405280600081525081526020016040518060200160405280600081525081526020016040518060400160405280600781526020017f6372656174656400000000000000000000000000000000000000000000000000815250815260200183815250600660008381526020019081526020016000206000820151816000015560208201518160010155604082015181600201908161094b91906115d9565b50606082015181600301908161096191906115d9565b50608082015181600401908161097791906115d9565b5060a082015181600501908161098d91906115d9565b5060c08201518160060190816109a391906115d9565b5060e08201518160070190816109b991906115d9565b509050507fccaa8df5c38775d94e64193b5f9fb95978252b697889d886aa6a54a46f8ba55581846040516109ee9291906117e3565b60405180910390a192915050565b600060016000815480929190610a1190611709565b919050559050600060046000838152602001908152602001600020905083816000019081610a3f91906115d9565b50828160010160006101000a81548173ffffffffffffffffffffffffffffffffffffffff021916908373ffffffffffffffffffffffffffffffffffffffff1602179055505092915050565b610a92610b0d565b600073ffffffffffffffffffffffffffffffffffffffff168173ffffffffffffffffffffffffffffffffffffffff1603610b01576040517f08c379a0000000000000000000000000000000000000000000000000000000008152600401610af89061187e565b60405180910390fd5b610b0a81610b8b565b50565b610b15610c4f565b73ffffffffffffffffffffffffffffffffffffffff16610b3361069f565b73ffffffffffffffffffffffffffffffffffffffff1614610b89576040517f08c379a0000000000000000000000000000000000000000000000000000000008152600401610b80906118ea565b60405180910390fd5b565b60008060009054906101000a900473ffffffffffffffffffffffffffffffffffffffff169050816000806101000a81548173ffffffffffffffffffffffffffffffffffffffff021916908373ffffffffffffffffffffffffffffffffffffffff1602179055508173ffffffffffffffffffffffffffffffffffffffff168173ffffffffffffffffffffffffffffffffffffffff167f8be0079c531659141344cd1fd0a4f28419497f9722a3daafe3b4186f6b6457e060405160405180910390a35050565b600033905090565b6000604051905090565b600080fd5b600080fd5b6000819050919050565b610c7e81610c6b565b8114610c8957600080fd5b50565b600081359050610c9b81610c75565b92915050565b600060208284031215610cb757610cb6610c61565b5b6000610cc584828501610c8c565b91505092915050565b60008115159050919050565b610ce381610cce565b82525050565b6000602082019050610cfe6000830184610cda565b92915050565b600081519050919050565b600082825260208201905092915050565b6000819050602082019050919050565b600073ffffffffffffffffffffffffffffffffffffffff82169050919050565b6000610d5b82610d30565b9050919050565b610d6b81610d50565b82525050565b6000610d7d8383610d62565b60208301905092915050565b6000602082019050919050565b6000610da182610d04565b610dab8185610d0f565b9350610db683610d20565b8060005b83811015610de7578151610dce8882610d71565b9750610dd983610d89565b925050600181019050610dba565b5085935050505092915050565b60006020820190508181036000830152610e0e8184610d96565b905092915050565b600080fd5b600080fd5b6000601f19601f8301169050919050565b7f4e487b7100000000000000000000000000000000000000000000000000000000600052604160045260246000fd5b610e6982610e20565b810181811067ffffffffffffffff82111715610e8857610e87610e31565b5b80604052505050565b6000610e9b610c57565b9050610ea78282610e60565b919050565b600067ffffffffffffffff821115610ec757610ec6610e31565b5b610ed082610e20565b9050602081019050919050565b82818337600083830152505050565b6000610eff610efa84610eac565b610e91565b905082815260208101848484011115610f1b57610f1a610e1b565b5b610f26848285610edd565b509392505050565b600082601f830112610f4357610f42610e16565b5b8135610f53848260208601610eec565b91505092915050565b60008060008060008060008060006101208a8c031215610f7f57610f7e610c61565b5b60008a013567ffffffffffffffff811115610f9d57610f9c610c66565b5b610fa98c828d01610f2e565b99505060208a013567ffffffffffffffff811115610fca57610fc9610c66565b5b610fd68c828d01610f2e565b9850506040610fe78c828d01610c8c565b9750506060610ff88c828d01610c8c565b96505060808a013567ffffffffffffffff81111561101957611018610c66565b5b6110258c828d01610f2e565b95505060a08a013567ffffffffffffffff81111561104657611045610c66565b5b6110528c828d01610f2e565b94505060c08a013567ffffffffffffffff81111561107357611072610c66565b5b61107f8c828d01610f2e565b93505060e08a013567ffffffffffffffff8111156110a05761109f610c66565b5b6110ac8c828d01610f2e565b9250506101006110be8c828d01610c8c565b9150509295985092959850929598565b6110d781610c6b565b82525050565b60006020820190506110f260008301846110ce565b92915050565b600080600080600060a0868803121561111457611113610c61565b5b600061112288828901610c8c565b955050602086013567ffffffffffffffff81111561114357611142610c66565b5b61114f88828901610f2e565b945050604086013567ffffffffffffffff8111156111705761116f610c66565b5b61117c88828901610f2e565b935050606086013567ffffffffffffffff81111561119d5761119c610c66565b5b6111a988828901610f2e565b925050608086013567ffffffffffffffff8111156111ca576111c9610c66565b5b6111d688828901610f2e565b9150509295509295909350565b6111ec81610d50565b82525050565b600060208201905061120760008301846111e3565b92915050565b6000806040838503121561122457611223610c61565b5b600061123285828601610c8c565b925050602083013567ffffffffffffffff81111561125357611252610c66565b5b61125f85828601610f2e565b9150509250929050565b600081519050919050565b600082825260208201905092915050565b60005b838110156112a3578082015181840152602081019050611288565b60008484015250505050565b60006112ba82611269565b6112c48185611274565b93506112d4818560208601611285565b6112dd81610e20565b840191505092915050565b60006040820190506112fd60008301856111e3565b818103602083015261130f81846112af565b90509392505050565b61132181610d50565b811461132c57600080fd5b50565b60008135905061133e81611318565b92915050565b6000806040838503121561135b5761135a610c61565b5b600083013567ffffffffffffffff81111561137957611378610c66565b5b61138585828601610f2e565b92505060206113968582860161132f565b9150509250929050565b6000602082840312156113b6576113b5610c61565b5b60006113c48482850161132f565b91505092915050565b7f4e487b7100000000000000000000000000000000000000000000000000000000600052602260045260246000fd5b6000600282049050600182168061141457607f821691505b602082108103611427576114266113cd565b5b50919050565b60008190508160005260206000209050919050565b60006020601f8301049050919050565b600082821b905092915050565b60006008830261148f7fffffffffffffffffffffffffffffffffffffffffffffffffffffffffffffffff82611452565b6114998683611452565b95508019841693508086168417925050509392505050565b6000819050919050565b60006114d66114d16114cc84610c6b565b6114b1565b610c6b565b9050919050565b6000819050919050565b6114f0836114bb565b6115046114fc826114dd565b84845461145f565b825550505050565b600090565b61151961150c565b6115248184846114e7565b505050565b5b818110156115485761153d600082611511565b60018101905061152a565b5050565b601f82111561158d5761155e8161142d565b61156784611442565b81016020851015611576578190505b61158a61158285611442565b830182611529565b50505b505050565b600082821c905092915050565b60006115b060001984600802611592565b1980831691505092915050565b60006115c9838361159f565b9150826002028217905092915050565b6115e282611269565b67ffffffffffffffff8111156115fb576115fa610e31565b5b61160582546113fc565b61161082828561154c565b600060209050601f8311600181146116435760008415611631578287015190505b61163b85826115bd565b8655506116a3565b601f1984166116518661142d565b60005b8281101561167957848901518255600182019150602085019450602081019050611654565b868310156116965784890151611692601f89168261159f565b8355505b6001600288020188555050505b505050505050565b7f4e487b7100000000000000000000000000000000000000000000000000000000600052603260045260246000fd5b7f4e487b7100000000000000000000000000000000000000000000000000000000600052601160045260246000fd5b600061171482610c6b565b91507fffffffffffffffffffffffffffffffffffffffffffffffffffffffffffffffff8203611746576117456116da565b5b600182019050919050565b7f4f6e6c792069737375696e672062616e6b2063616e20637265617465206e657760008201527f2073616c6573636f6e7472616374206f6e20626c6f636b636861696e00000000602082015250565b60006117ad603c83611274565b91506117b882611751565b604082019050919050565b600060208201905081810360008301526117dc816117a0565b9050919050565b60006040820190506117f860008301856110ce565b61180560208301846110ce565b9392505050565b7f4f776e61626c653a206e6577206f776e657220697320746865207a65726f206160008201527f6464726573730000000000000000000000000000000000000000000000000000602082015250565b6000611868602683611274565b91506118738261180c565b604082019050919050565b600060208201905081810360008301526118978161185b565b9050919050565b7f4f776e61626c653a2063616c6c6572206973206e6f7420746865206f776e6572600082015250565b60006118d4602083611274565b91506118df8261189e565b602082019050919050565b60006020820190508181036000830152611903816118c7565b905091905056fea264697066735822122040c141d1fe5dfedda4b53d7b9552515f1c051a45599b6e074c859fbb1395c75364736f6c63430008120033",
  "linkReferences": {},
  "deployedLinkReferences": {}
}